{
  "abi": [
    {
      "inputs": [
        {
          "internalType": "address",
          "name": "_tokenAddress",
          "type": "address"
        }
      ],
      "name": "createExchange",
      "outputs": [
        {
          "internalType": "address",
          "name": "",
          "type": "address"
        }
      ],
      "stateMutability": "nonpayable",
      "type": "function"
    },
    {
      "inputs": [
        {
          "internalType": "address",
          "name": "_tokenAddress",
          "type": "address"
        }
      ],
      "name": "getExchange",
      "outputs": [
        {
          "internalType": "address",
          "name": "",
          "type": "address"
        }
      ],
      "stateMutability": "view",
      "type": "function"
    },
    {
      "inputs": [
        {
          "internalType": "address",
          "name": "",
          "type": "address"
        }
      ],
      "name": "tokenToExchange",
      "outputs": [
        {
          "internalType": "address",
          "name": "",
          "type": "address"
        }
      ],
      "stateMutability": "view",
      "type": "function"
    }
  ],
  "bytecode": {
    "object": "0x608060405234801561001057600080fd5b50611bed806100206000396000f3fe608060405234801561001057600080fd5b50600436106100415760003560e01c806306f2bf62146100465780631648f38e1461008e578063c3c49a63146100a1575b600080fd5b610072610054366004610206565b6001600160a01b039081166000908152602081905260409020541690565b6040516001600160a01b03909116815260200160405180910390f35b61007261009c366004610206565b6100ca565b6100726100af366004610206565b6000602081905290815260409020546001600160a01b031681565b60006001600160a01b03821661011f5760405162461bcd60e51b8152602060048201526015602482015274696e76616c696420746f6b656e206164647265737360581b60448201526064015b60405180910390fd5b6001600160a01b0382811660009081526020819052604090205416156101875760405162461bcd60e51b815260206004820152601760248201527f65786368616e676520616c7265616479206578697374730000000000000000006044820152606401610116565b600082604051610196906101f9565b6001600160a01b039091168152602001604051809103906000f0801580156101c2573d6000803e3d6000fd5b506001600160a01b03938416600090815260208190526040902080546001600160a01b031916948216949094179093555090919050565b6119818061023783390190565b60006020828403121561021857600080fd5b81356001600160a01b038116811461022f57600080fd5b939250505056fe60806040523480156200001157600080fd5b506040516200198138038062001981833981016040819052620000349162000123565b6040518060400160405280600a815260200169556e69737761702d563160b01b81525060405180604001604052806006815260200165554e492d563160d01b8152508160039081620000879190620001fa565b506004620000968282620001fa565b5050506001600160a01b038116620000f45760405162461bcd60e51b815260206004820152601560248201527f696e76616c696420746f6b656e20616464726573730000000000000000000000604482015260640160405180910390fd5b600580546001600160a01b039092166001600160a01b03199283161790556006805490911633179055620002c6565b6000602082840312156200013657600080fd5b81516001600160a01b03811681146200014e57600080fd5b9392505050565b634e487b7160e01b600052604160045260246000fd5b600181811c908216806200018057607f821691505b602082108103620001a157634e487b7160e01b600052602260045260246000fd5b50919050565b601f821115620001f557600081815260208120601f850160051c81016020861015620001d05750805b601f850160051c820191505b81811015620001f157828155600101620001dc565b5050505b505050565b81516001600160401b0381111562000216576200021662000155565b6200022e816200022784546200016b565b84620001a7565b602080601f8311600181146200026657600084156200024d5750858301515b600019600386901b1c1916600185901b178555620001f1565b600085815260208120601f198616915b82811015620002975788860151825594840194600190910190840162000276565b5085821015620002b65787850151600019600388901b60f8161c191681555b5050505050600190811b01905550565b6116ab80620002d66000396000f3fe60806040526004361061012a5760003560e01c806395d89b41116100ab578063a9059cbb1161006f578063a9059cbb14610345578063c2507ac114610365578063dd62ed3e14610385578063e0486c8a146103a5578063f7a7e324146103c7578063f979dcd7146103e757600080fd5b806395d89b4114610283578063966dae0e146102985780639c8f9f23146102d05780639d76ea5814610305578063a457c2d71461032557600080fd5b806339509351116100f257806339509351146101e557806351c6590a1461020557806359bf5d391461021857806370a082311461022d5780638fc7a25d1461026357600080fd5b806306fdde031461012f578063095ea7b31461015a57806318160ddd1461018a57806323b872dd146101a9578063313ce567146101c9575b600080fd5b34801561013b57600080fd5b506101446103fa565b60405161015191906113b0565b60405180910390f35b34801561016657600080fd5b5061017a610175366004611413565b61048c565b6040519015158152602001610151565b34801561019657600080fd5b506002545b604051908152602001610151565b3480156101b557600080fd5b5061017a6101c436600461143f565b6104a6565b3480156101d557600080fd5b5060405160128152602001610151565b3480156101f157600080fd5b5061017a610200366004611413565b6104ca565b61019b610213366004611480565b6104ec565b34801561022457600080fd5b5061019b6106c2565b34801561023957600080fd5b5061019b610248366004611499565b6001600160a01b031660009081526020819052604090205490565b34801561026f57600080fd5b5061019b61027e366004611480565b610734565b34801561028f57600080fd5b50610144610795565b3480156102a457600080fd5b506006546102b8906001600160a01b031681565b6040516001600160a01b039091168152602001610151565b3480156102dc57600080fd5b506102f06102eb366004611480565b6107a4565b60408051928352602083019190915201610151565b34801561031157600080fd5b506005546102b8906001600160a01b031681565b34801561033157600080fd5b5061017a610340366004611413565b6108eb565b34801561035157600080fd5b5061017a610360366004611413565b610966565b34801561037157600080fd5b5061019b610380366004611480565b610974565b34801561039157600080fd5b5061019b6103a03660046114b6565b6109d3565b3480156103b157600080fd5b506103c56103c03660046114ef565b6109fe565b005b3480156103d357600080fd5b506103c56103e2366004611511565b610b15565b6103c56103f5366004611480565b610cf0565b6060600380546104099061154a565b80601f01602080910402602001604051908101604052809291908181526020018280546104359061154a565b80156104825780601f1061045757610100808354040283529160200191610482565b820191906000526020600020905b81548152906001019060200180831161046557829003601f168201915b5050505050905090565b60003361049a818585610cfd565b60019150505b92915050565b6000336104b4858285610e22565b6104bf858585610e9c565b506001949350505050565b60003361049a8185856104dd83836109d3565b6104e7919061159a565b610cfd565b60006104f66106c2565b600003610589576005546040516323b872dd60e01b81526001600160a01b039091169081906323b872dd90610533903390309088906004016115ad565b6020604051808303816000875af1158015610552573d6000803e3d6000fd5b505050506040513d601f19601f8201168201806040525081019061057691906115d1565b50476105823382611040565b9392505050565b600061059534476115f3565b905060006105a16106c2565b90506000826105b08334611606565b6105ba919061161d565b9050808510156106115760405162461bcd60e51b815260206004820152601960248201527f696e73756666696369656e7420746f6b656e20616d6f756e740000000000000060448201526064015b60405180910390fd5b6005546040516323b872dd60e01b81526001600160a01b039091169081906323b872dd90610647903390309087906004016115ad565b6020604051808303816000875af1158015610666573d6000803e3d6000fd5b505050506040513d601f19601f8201168201806040525081019061068a91906115d1565b506000843461069860025490565b6106a29190611606565b6106ac919061161d565b90506106b83382611040565b9695505050505050565b6005546040516370a0823160e01b81523060048201526000916001600160a01b0316906370a0823190602401602060405180830381865afa15801561070b573d6000803e3d6000fd5b505050506040513d601f19601f8201168201806040525081019061072f919061163f565b905090565b600080821161077e5760405162461bcd60e51b81526020600482015260166024820152751d1bdad95b94dbdb19081a5cc81d1bdbc81cdb585b1b60521b6044820152606401610608565b60006107886106c2565b90506105828382476110ff565b6060600480546104099061154a565b600080600083116107e85760405162461bcd60e51b815260206004820152600e60248201526d1a5b9d985b1a5908185b5bdd5b9d60921b6044820152606401610608565b60006107f360025490565b6107fd8547611606565b610807919061161d565b9050600061081460025490565b8561081d6106c2565b6108279190611606565b610831919061161d565b905061083d338661119b565b604051339083156108fc029084906000818181858888f1935050505015801561086a573d6000803e3d6000fd5b5060055460405163a9059cbb60e01b8152336004820152602481018390526001600160a01b039091169063a9059cbb906044016020604051808303816000875af11580156108bc573d6000803e3d6000fd5b505050506040513d601f19601f820116820180604052508101906108e091906115d1565b509094909350915050565b600033816108f982866109d3565b9050838110156109595760405162461bcd60e51b815260206004820152602560248201527f45524332303a2064656372656173656420616c6c6f77616e63652062656c6f77604482015264207a65726f60d81b6064820152608401610608565b6104bf8286868403610cfd565b60003361049a818585610e9c565b60008082116109bc5760405162461bcd60e51b8152602060048201526014602482015273195d1a14dbdb19081a5cc81d1bdbc81cdb585b1b60621b6044820152606401610608565b60006109c66106c2565b90506105828347836110ff565b6001600160a01b03918216600090815260016020908152604080832093909416825291909152205490565b6000610a086106c2565b90506000610a178483476110ff565b905082811015610a695760405162461bcd60e51b815260206004820152601a60248201527f696e73756666696369656e74206f757470757420616d6f756e740000000000006044820152606401610608565b6005546040516323b872dd60e01b81526001600160a01b03909116906323b872dd90610a9d903390309089906004016115ad565b6020604051808303816000875af1158015610abc573d6000803e3d6000fd5b505050506040513d601f19601f82011682018060405250810190610ae091906115d1565b50604051339082156108fc029083906000818181858888f19350505050158015610b0e573d6000803e3d6000fd5b5050505050565b6006546040516303795fb160e11b81526001600160a01b03838116600483015260009216906306f2bf62906024016020604051808303816000875af1158015610b62573d6000803e3d6000fd5b505050506040513d601f19601f82011682018060405250810190610b869190611658565b90506001600160a01b0381163014801590610ba957506001600160a01b03811615155b610bf55760405162461bcd60e51b815260206004820152601860248201527f696e76616c69642065786368616e6765206164647265737300000000000000006044820152606401610608565b6000610bff6106c2565b90506000610c0e8683476110ff565b6005546040516323b872dd60e01b81529192506001600160a01b0316906323b872dd90610c4390339030908b906004016115ad565b6020604051808303816000875af1158015610c62573d6000803e3d6000fd5b505050506040513d601f19601f82011682018060405250810190610c8691906115d1565b5060405162e2766960e61b8152600481018690523360248201526001600160a01b0384169063389d9a409083906044016000604051808303818588803b158015610ccf57600080fd5b505af1158015610ce3573d6000803e3d6000fd5b5050505050505050505050565b610cfa81336112c5565b50565b6001600160a01b038316610d5f5760405162461bcd60e51b8152602060048201526024808201527f45524332303a20617070726f76652066726f6d20746865207a65726f206164646044820152637265737360e01b6064820152608401610608565b6001600160a01b038216610dc05760405162461bcd60e51b815260206004820152602260248201527f45524332303a20617070726f766520746f20746865207a65726f206164647265604482015261737360f01b6064820152608401610608565b6001600160a01b0383811660008181526001602090815260408083209487168084529482529182902085905590518481527f8c5be1e5ebec7d5bd14f71427d1e84f3dd0314c0f7b2291e5b200ac8c7c3b92591015b60405180910390a3505050565b6000610e2e84846109d3565b90506000198114610e965781811015610e895760405162461bcd60e51b815260206004820152601d60248201527f45524332303a20696e73756666696369656e7420616c6c6f77616e63650000006044820152606401610608565b610e968484848403610cfd565b50505050565b6001600160a01b038316610f005760405162461bcd60e51b815260206004820152602560248201527f45524332303a207472616e736665722066726f6d20746865207a65726f206164604482015264647265737360d81b6064820152608401610608565b6001600160a01b038216610f625760405162461bcd60e51b815260206004820152602360248201527f45524332303a207472616e7366657220746f20746865207a65726f206164647260448201526265737360e81b6064820152608401610608565b6001600160a01b03831660009081526020819052604090205481811015610fda5760405162461bcd60e51b815260206004820152602660248201527f45524332303a207472616e7366657220616d6f756e7420657863656564732062604482015265616c616e636560d01b6064820152608401610608565b6001600160a01b03848116600081815260208181526040808320878703905593871680835291849020805487019055925185815290927fddf252ad1be2c89b69c2b068fc378daa952ba7f163c4a11628f55a4df523b3ef910160405180910390a3610e96565b6001600160a01b0382166110965760405162461bcd60e51b815260206004820152601f60248201527f45524332303a206d696e7420746f20746865207a65726f2061646472657373006044820152606401610608565b80600260008282546110a8919061159a565b90915550506001600160a01b038216600081815260208181526040808320805486019055518481527fddf252ad1be2c89b69c2b068fc378daa952ba7f163c4a11628f55a4df523b3ef910160405180910390a35050565b600080831180156111105750600082115b61114f5760405162461bcd60e51b815260206004820152601060248201526f696e76616c696420726573657276657360801b6044820152606401610608565b600061115c856063611606565b9050600061116a8483611606565b905060008261117a876064611606565b611184919061159a565b9050611190818361161d565b979650505050505050565b6001600160a01b0382166111fb5760405162461bcd60e51b815260206004820152602160248201527f45524332303a206275726e2066726f6d20746865207a65726f206164647265736044820152607360f81b6064820152608401610608565b6001600160a01b0382166000908152602081905260409020548181101561126f5760405162461bcd60e51b815260206004820152602260248201527f45524332303a206275726e20616d6f756e7420657863656564732062616c616e604482015261636560f01b6064820152608401610608565b6001600160a01b0383166000818152602081815260408083208686039055600280548790039055518581529192917fddf252ad1be2c89b69c2b068fc378daa952ba7f163c4a11628f55a4df523b3ef9101610e15565b60006112cf6106c2565b905060006112e7346112e181476115f3565b846110ff565b9050838110156113395760405162461bcd60e51b815260206004820152601a60248201527f696e73756666696369656e74206f757470757420616d6f756e740000000000006044820152606401610608565b60055460405163a9059cbb60e01b81526001600160a01b038581166004830152602482018490529091169063a9059cbb906044016020604051808303816000875af115801561138c573d6000803e3d6000fd5b505050506040513d601f19601f82011682018060405250810190610b0e91906115d1565b600060208083528351808285015260005b818110156113dd578581018301518582016040015282016113c1565b506000604082860101526040601f19601f8301168501019250505092915050565b6001600160a01b0381168114610cfa57600080fd5b6000806040838503121561142657600080fd5b8235611431816113fe565b946020939093013593505050565b60008060006060848603121561145457600080fd5b833561145f816113fe565b9250602084013561146f816113fe565b929592945050506040919091013590565b60006020828403121561149257600080fd5b5035919050565b6000602082840312156114ab57600080fd5b8135610582816113fe565b600080604083850312156114c957600080fd5b82356114d4816113fe565b915060208301356114e4816113fe565b809150509250929050565b6000806040838503121561150257600080fd5b50508035926020909101359150565b60008060006060848603121561152657600080fd5b8335925060208401359150604084013561153f816113fe565b809150509250925092565b600181811c9082168061155e57607f821691505b60208210810361157e57634e487b7160e01b600052602260045260246000fd5b50919050565b634e487b7160e01b600052601160045260246000fd5b808201808211156104a0576104a0611584565b6001600160a01b039384168152919092166020820152604081019190915260600190565b6000602082840312156115e357600080fd5b8151801515811461058257600080fd5b818103818111156104a0576104a0611584565b80820281158282048414176104a0576104a0611584565b60008261163a57634e487b7160e01b600052601260045260246000fd5b500490565b60006020828403121561165157600080fd5b5051919050565b60006020828403121561166a57600080fd5b8151610582816113fe56fea2646970667358221220138f71386048aaaa990c9f4c57193707ebb577a38511c781fc2d72fd9eb19fe664736f6c63430008110033a2646970667358221220ab9422578f3d239f54ace6b1b6fb04b71f07db29539e92a0ee28adf35024398464736f6c63430008110033",
    "linkReferences": {}
  },
  "methodIdentifiers": {
    "createExchange(address)": "1648f38e",
    "getExchange(address)": "06f2bf62",
    "tokenToExchange(address)": "c3c49a63"
  },
  "id": 20
}