{
  "abi": [
    {
      "inputs": [
        {
          "internalType": "address",
          "name": "_tokenAddress",
          "type": "address"
        }
      ],
      "stateMutability": "nonpayable",
      "type": "constructor"
    },
    {
      "inputs": [
        {
          "internalType": "uint256",
          "name": "_tokenAmount",
          "type": "uint256"
        }
      ],
      "name": "addLiquidity",
      "outputs": [],
      "stateMutability": "payable",
      "type": "function"
    },
    {
      "inputs": [
        {
          "internalType": "uint256",
          "name": "_minTokens",
          "type": "uint256"
        }
      ],
      "name": "ethToTokenSwap",
      "outputs": [],
      "stateMutability": "payable",
      "type": "function"
    },
    {
      "inputs": [
        {
          "internalType": "uint256",
          "name": "_tokenSold",
          "type": "uint256"
        }
      ],
      "name": "getEthAmount",
      "outputs": [
        {
          "internalType": "uint256",
          "name": "",
          "type": "uint256"
        }
      ],
      "stateMutability": "view",
      "type": "function"
    },
    {
      "inputs": [],
      "name": "getReserve",
      "outputs": [
        {
          "internalType": "uint256",
          "name": "",
          "type": "uint256"
        }
      ],
      "stateMutability": "view",
      "type": "function"
    },
    {
      "inputs": [
        {
          "internalType": "uint256",
          "name": "_ethSold",
          "type": "uint256"
        }
      ],
      "name": "getTokenAmount",
      "outputs": [
        {
          "internalType": "uint256",
          "name": "",
          "type": "uint256"
        }
      ],
      "stateMutability": "view",
      "type": "function"
    },
    {
      "inputs": [],
      "name": "tokenAddress",
      "outputs": [
        {
          "internalType": "address",
          "name": "",
          "type": "address"
        }
      ],
      "stateMutability": "view",
      "type": "function"
    },
    {
      "inputs": [
        {
          "internalType": "uint256",
          "name": "_tokensSold",
          "type": "uint256"
        },
        {
          "internalType": "uint256",
          "name": "_minEth",
          "type": "uint256"
        }
      ],
      "name": "tokenToEthSwap",
      "outputs": [],
      "stateMutability": "nonpayable",
      "type": "function"
    }
  ],
  "bytecode": {
    "object": "0x608060405234801561001057600080fd5b506040516107b13803806107b183398101604081905261002f916100ae565b6001600160a01b0381166100895760405162461bcd60e51b815260206004820152601560248201527f696e76616c696420746f6b656e20616464726573730000000000000000000000604482015260640160405180910390fd5b600080546001600160a01b0319166001600160a01b03929092169190911790556100de565b6000602082840312156100c057600080fd5b81516001600160a01b03811681146100d757600080fd5b9392505050565b6106c4806100ed6000396000f3fe6080604052600436106100705760003560e01c80639d76ea581161004e5780639d76ea58146100d2578063c2507ac11461010a578063e0486c8a1461012a578063f979dcd71461014a57600080fd5b806351c6590a1461007557806359bf5d391461008a5780638fc7a25d146100b2575b600080fd5b61008861008336600461059d565b61015d565b005b34801561009657600080fd5b5061009f6101df565b6040519081526020015b60405180910390f35b3480156100be57600080fd5b5061009f6100cd36600461059d565b610251565b3480156100de57600080fd5b506000546100f2906001600160a01b031681565b6040516001600160a01b0390911681526020016100a9565b34801561011657600080fd5b5061009f61012536600461059d565b6102be565b34801561013657600080fd5b506100886101453660046105b6565b61031d565b61008861015836600461059d565b610438565b6000546040516323b872dd60e01b8152336004820152306024820152604481018390526001600160a01b039091169081906323b872dd906064016020604051808303816000875af11580156101b6573d6000803e3d6000fd5b505050506040513d601f19601f820116820180604052508101906101da91906105d8565b505050565b600080546040516370a0823160e01b81523060048201526001600160a01b03909116906370a0823190602401602060405180830381865afa158015610228573d6000803e3d6000fd5b505050506040513d601f19601f8201168201806040525081019061024c91906105fa565b905090565b60008082116102a05760405162461bcd60e51b81526020600482015260166024820152751d1bdad95b94dbdb19081a5cc81d1bdbc81cdb585b1b60521b60448201526064015b60405180910390fd5b60006102aa6101df565b90506102b7838247610527565b9392505050565b60008082116103065760405162461bcd60e51b8152602060048201526014602482015273195d1a14dbdb19081a5cc81d1bdbc81cdb585b1b60621b6044820152606401610297565b60006103106101df565b90506102b7834783610527565b60006103276101df565b90506000610336848347610527565b9050828110156103885760405162461bcd60e51b815260206004820152601a60248201527f696e73756666696369656e74206f757470757420616d6f756e740000000000006044820152606401610297565b6000546040516323b872dd60e01b8152336004820152306024820152604481018690526001600160a01b03909116906323b872dd906064016020604051808303816000875af11580156103df573d6000803e3d6000fd5b505050506040513d601f19601f8201168201806040525081019061040391906105d8565b50604051339082156108fc029083906000818181858888f19350505050158015610431573d6000803e3d6000fd5b5050505050565b60006104426101df565b9050600061045a346104548147610629565b84610527565b9050828110156104ac5760405162461bcd60e51b815260206004820152601a60248201527f696e73756666696369656e74206f757470757420616d6f756e740000000000006044820152606401610297565b60005460405163a9059cbb60e01b8152336004820152602481018390526001600160a01b039091169063a9059cbb906044016020604051808303816000875af11580156104fd573d6000803e3d6000fd5b505050506040513d601f19601f8201168201806040525081019061052191906105d8565b50505050565b600080831180156105385750600082115b6105775760405162461bcd60e51b815260206004820152601060248201526f696e76616c696420726573657276657360801b6044820152606401610297565b6105818484610642565b61058b8386610655565b610595919061066c565b949350505050565b6000602082840312156105af57600080fd5b5035919050565b600080604083850312156105c957600080fd5b50508035926020909101359150565b6000602082840312156105ea57600080fd5b815180151581146102b757600080fd5b60006020828403121561060c57600080fd5b5051919050565b634e487b7160e01b600052601160045260246000fd5b8181038181111561063c5761063c610613565b92915050565b8082018082111561063c5761063c610613565b808202811582820484141761063c5761063c610613565b60008261068957634e487b7160e01b600052601260045260246000fd5b50049056fea2646970667358221220d5b068a32d0fe36380d963c9ea383a878be75b5f08386b33827d702d966bd9e764736f6c63430008110033",
    "linkReferences": {}
  },
  "methodIdentifiers": {
    "addLiquidity(uint256)": "51c6590a",
    "ethToTokenSwap(uint256)": "f979dcd7",
    "getEthAmount(uint256)": "8fc7a25d",
    "getReserve()": "59bf5d39",
    "getTokenAmount(uint256)": "c2507ac1",
    "tokenAddress()": "9d76ea58",
    "tokenToEthSwap(uint256,uint256)": "e0486c8a"
  },
  "id": 19
}